{
  "address": "0x230f98deb5c6Bc68e11b757823898De0Ce00597A",
  "abi": [
    {
      "inputs": [
        {
          "internalType": "address",
          "name": "vrfCoordinatorV2",
          "type": "address"
        },
        {
          "internalType": "uint64",
          "name": "subscriptionId",
          "type": "uint64"
        },
        {
          "internalType": "bytes32",
          "name": "gasLane",
          "type": "bytes32"
        },
        {
          "internalType": "uint32",
          "name": "callbackGasLimit",
          "type": "uint32"
        },
        {
          "internalType": "string[3]",
          "name": "dogTokenUris",
          "type": "string[3]"
        },
        {
          "internalType": "uint256",
          "name": "mintFee",
          "type": "uint256"
        }
      ],
      "stateMutability": "nonpayable",
      "type": "constructor"
    },
    {
      "inputs": [
        {
          "internalType": "address",
          "name": "have",
          "type": "address"
        },
        {
          "internalType": "address",
          "name": "want",
          "type": "address"
        }
      ],
      "name": "OnlyCoordinatorCanFulfill",
      "type": "error"
    },
    {
      "inputs": [],
      "name": "RandomIpfsNft__AlreadyInitialized",
      "type": "error"
    },
    {
      "inputs": [],
      "name": "RandomIpfsNft__NeedMoreETHSent",
      "type": "error"
    },
    {
      "inputs": [],
      "name": "RandomIpfsNft__RangeOutOfBounds",
      "type": "error"
    },
    {
      "inputs": [],
      "name": "RandomIpfsNft__TransferFailed",
      "type": "error"
    },
    {
      "anonymous": false,
      "inputs": [
        {
          "indexed": true,
          "internalType": "address",
          "name": "owner",
          "type": "address"
        },
        {
          "indexed": true,
          "internalType": "address",
          "name": "approved",
          "type": "address"
        },
        {
          "indexed": true,
          "internalType": "uint256",
          "name": "tokenId",
          "type": "uint256"
        }
      ],
      "name": "Approval",
      "type": "event"
    },
    {
      "anonymous": false,
      "inputs": [
        {
          "indexed": true,
          "internalType": "address",
          "name": "owner",
          "type": "address"
        },
        {
          "indexed": true,
          "internalType": "address",
          "name": "operator",
          "type": "address"
        },
        {
          "indexed": false,
          "internalType": "bool",
          "name": "approved",
          "type": "bool"
        }
      ],
      "name": "ApprovalForAll",
      "type": "event"
    },
    {
      "anonymous": false,
      "inputs": [
        {
          "indexed": false,
          "internalType": "enum RandomIpfsNft.Breed",
          "name": "breed",
          "type": "uint8"
        },
        {
          "indexed": false,
          "internalType": "address",
          "name": "minter",
          "type": "address"
        }
      ],
      "name": "NftMinted",
      "type": "event"
    },
    {
      "anonymous": false,
      "inputs": [
        {
          "indexed": true,
          "internalType": "uint256",
          "name": "requestId",
          "type": "uint256"
        },
        {
          "indexed": false,
          "internalType": "address",
          "name": "requester",
          "type": "address"
        }
      ],
      "name": "NftRequested",
      "type": "event"
    },
    {
      "anonymous": false,
      "inputs": [
        {
          "indexed": true,
          "internalType": "address",
          "name": "previousOwner",
          "type": "address"
        },
        {
          "indexed": true,
          "internalType": "address",
          "name": "newOwner",
          "type": "address"
        }
      ],
      "name": "OwnershipTransferred",
      "type": "event"
    },
    {
      "anonymous": false,
      "inputs": [
        {
          "indexed": true,
          "internalType": "address",
          "name": "from",
          "type": "address"
        },
        {
          "indexed": true,
          "internalType": "address",
          "name": "to",
          "type": "address"
        },
        {
          "indexed": true,
          "internalType": "uint256",
          "name": "tokenId",
          "type": "uint256"
        }
      ],
      "name": "Transfer",
      "type": "event"
    },
    {
      "inputs": [
        {
          "internalType": "address",
          "name": "to",
          "type": "address"
        },
        {
          "internalType": "uint256",
          "name": "tokenId",
          "type": "uint256"
        }
      ],
      "name": "approve",
      "outputs": [],
      "stateMutability": "nonpayable",
      "type": "function"
    },
    {
      "inputs": [
        {
          "internalType": "address",
          "name": "owner",
          "type": "address"
        }
      ],
      "name": "balanceOf",
      "outputs": [
        {
          "internalType": "uint256",
          "name": "",
          "type": "uint256"
        }
      ],
      "stateMutability": "view",
      "type": "function"
    },
    {
      "inputs": [
        {
          "internalType": "uint256",
          "name": "tokenId",
          "type": "uint256"
        }
      ],
      "name": "getApproved",
      "outputs": [
        {
          "internalType": "address",
          "name": "",
          "type": "address"
        }
      ],
      "stateMutability": "view",
      "type": "function"
    },
    {
      "inputs": [
        {
          "internalType": "uint256",
          "name": "moddedRng",
          "type": "uint256"
        }
      ],
      "name": "getBreedFromModdedRng",
      "outputs": [
        {
          "internalType": "enum RandomIpfsNft.Breed",
          "name": "",
          "type": "uint8"
        }
      ],
      "stateMutability": "pure",
      "type": "function"
    },
    {
      "inputs": [],
      "name": "getChanceArray",
      "outputs": [
        {
          "internalType": "uint256[3]",
          "name": "",
          "type": "uint256[3]"
        }
      ],
      "stateMutability": "pure",
      "type": "function"
    },
    {
      "inputs": [
        {
          "internalType": "uint256",
          "name": "index",
          "type": "uint256"
        }
      ],
      "name": "getDogTokenUri",
      "outputs": [
        {
          "internalType": "string",
          "name": "",
          "type": "string"
        }
      ],
      "stateMutability": "view",
      "type": "function"
    },
    {
      "inputs": [],
      "name": "getInitialized",
      "outputs": [
        {
          "internalType": "bool",
          "name": "",
          "type": "bool"
        }
      ],
      "stateMutability": "view",
      "type": "function"
    },
    {
      "inputs": [],
      "name": "getMintFee",
      "outputs": [
        {
          "internalType": "uint256",
          "name": "",
          "type": "uint256"
        }
      ],
      "stateMutability": "view",
      "type": "function"
    },
    {
      "inputs": [],
      "name": "getTokenCounter",
      "outputs": [
        {
          "internalType": "uint256",
          "name": "",
          "type": "uint256"
        }
      ],
      "stateMutability": "view",
      "type": "function"
    },
    {
      "inputs": [
        {
          "internalType": "address",
          "name": "owner",
          "type": "address"
        },
        {
          "internalType": "address",
          "name": "operator",
          "type": "address"
        }
      ],
      "name": "isApprovedForAll",
      "outputs": [
        {
          "internalType": "bool",
          "name": "",
          "type": "bool"
        }
      ],
      "stateMutability": "view",
      "type": "function"
    },
    {
      "inputs": [],
      "name": "name",
      "outputs": [
        {
          "internalType": "string",
          "name": "",
          "type": "string"
        }
      ],
      "stateMutability": "view",
      "type": "function"
    },
    {
      "inputs": [],
      "name": "owner",
      "outputs": [
        {
          "internalType": "address",
          "name": "",
          "type": "address"
        }
      ],
      "stateMutability": "view",
      "type": "function"
    },
    {
      "inputs": [
        {
          "internalType": "uint256",
          "name": "tokenId",
          "type": "uint256"
        }
      ],
      "name": "ownerOf",
      "outputs": [
        {
          "internalType": "address",
          "name": "",
          "type": "address"
        }
      ],
      "stateMutability": "view",
      "type": "function"
    },
    {
      "inputs": [
        {
          "internalType": "uint256",
          "name": "requestId",
          "type": "uint256"
        },
        {
          "internalType": "uint256[]",
          "name": "randomWords",
          "type": "uint256[]"
        }
      ],
      "name": "rawFulfillRandomWords",
      "outputs": [],
      "stateMutability": "nonpayable",
      "type": "function"
    },
    {
      "inputs": [],
      "name": "renounceOwnership",
      "outputs": [],
      "stateMutability": "nonpayable",
      "type": "function"
    },
    {
      "inputs": [],
      "name": "requestNft",
      "outputs": [
        {
          "internalType": "uint256",
          "name": "requestId",
          "type": "uint256"
        }
      ],
      "stateMutability": "payable",
      "type": "function"
    },
    {
      "inputs": [
        {
          "internalType": "uint256",
          "name": "",
          "type": "uint256"
        }
      ],
      "name": "s_requestIdToSender",
      "outputs": [
        {
          "internalType": "address",
          "name": "",
          "type": "address"
        }
      ],
      "stateMutability": "view",
      "type": "function"
    },
    {
      "inputs": [],
      "name": "s_tokenCounter",
      "outputs": [
        {
          "internalType": "uint256",
          "name": "",
          "type": "uint256"
        }
      ],
      "stateMutability": "view",
      "type": "function"
    },
    {
      "inputs": [
        {
          "internalType": "address",
          "name": "from",
          "type": "address"
        },
        {
          "internalType": "address",
          "name": "to",
          "type": "address"
        },
        {
          "internalType": "uint256",
          "name": "tokenId",
          "type": "uint256"
        }
      ],
      "name": "safeTransferFrom",
      "outputs": [],
      "stateMutability": "nonpayable",
      "type": "function"
    },
    {
      "inputs": [
        {
          "internalType": "address",
          "name": "from",
          "type": "address"
        },
        {
          "internalType": "address",
          "name": "to",
          "type": "address"
        },
        {
          "internalType": "uint256",
          "name": "tokenId",
          "type": "uint256"
        },
        {
          "internalType": "bytes",
          "name": "data",
          "type": "bytes"
        }
      ],
      "name": "safeTransferFrom",
      "outputs": [],
      "stateMutability": "nonpayable",
      "type": "function"
    },
    {
      "inputs": [
        {
          "internalType": "address",
          "name": "operator",
          "type": "address"
        },
        {
          "internalType": "bool",
          "name": "approved",
          "type": "bool"
        }
      ],
      "name": "setApprovalForAll",
      "outputs": [],
      "stateMutability": "nonpayable",
      "type": "function"
    },
    {
      "inputs": [
        {
          "internalType": "bytes4",
          "name": "interfaceId",
          "type": "bytes4"
        }
      ],
      "name": "supportsInterface",
      "outputs": [
        {
          "internalType": "bool",
          "name": "",
          "type": "bool"
        }
      ],
      "stateMutability": "view",
      "type": "function"
    },
    {
      "inputs": [],
      "name": "symbol",
      "outputs": [
        {
          "internalType": "string",
          "name": "",
          "type": "string"
        }
      ],
      "stateMutability": "view",
      "type": "function"
    },
    {
      "inputs": [
        {
          "internalType": "uint256",
          "name": "tokenId",
          "type": "uint256"
        }
      ],
      "name": "tokenURI",
      "outputs": [
        {
          "internalType": "string",
          "name": "",
          "type": "string"
        }
      ],
      "stateMutability": "view",
      "type": "function"
    },
    {
      "inputs": [
        {
          "internalType": "address",
          "name": "from",
          "type": "address"
        },
        {
          "internalType": "address",
          "name": "to",
          "type": "address"
        },
        {
          "internalType": "uint256",
          "name": "tokenId",
          "type": "uint256"
        }
      ],
      "name": "transferFrom",
      "outputs": [],
      "stateMutability": "nonpayable",
      "type": "function"
    },
    {
      "inputs": [
        {
          "internalType": "address",
          "name": "newOwner",
          "type": "address"
        }
      ],
      "name": "transferOwnership",
      "outputs": [],
      "stateMutability": "nonpayable",
      "type": "function"
    },
    {
      "inputs": [],
      "name": "withdrawl",
      "outputs": [],
      "stateMutability": "nonpayable",
      "type": "function"
    }
  ],
  "transactionHash": "0x56b7f221318b9b46824e1ffc0c73fb553fb55f2471a2e93c2047be6c2b1312e8",
  "args": [
    "0x2ca8e0c643bde4c2e08ab1fa0da3401adad7734d",
    "6277",
    "0x79d3d8832d904592c0bf9818b621522c988bb8b0c05cdc3b15aea1b6e8db0c15",
    "500000",
    [
      "ipfs://QmYbbv4YDnXBTrwj4MB3QDLYqCYzz8UaaNYwGv2tjxPqX9",
      "ipfs://QmVAUvg5LmRKdzewZZwYcJPBm7skBJD1Fbm251pjsHsRxK",
      "ipfs://QmcWCLKXsMsByRwQQaJ2HuvAMd2bR3PY6bn9eXSn7C6WVf"
    ],
    "10000000000000000"
  ],
  "numDeployments": 1,
  "solcInputHash": "a90eda63ad308b0240407044ed0688ce",
  "bytecode": "0x6101206040523480156200001257600080fd5b50604051620045fd380380620045fd833981810160405281019062000038919062000880565b6040518060400160405280600f81526020017f52616e646f6d2049504653204e465400000000000000000000000000000000008152506040518060400160405280600381526020017f52494e0000000000000000000000000000000000000000000000000000000000815250878073ffffffffffffffffffffffffffffffffffffffff1660808173ffffffffffffffffffffffffffffffffffffffff1660601b81525050508160009080519060200190620000f592919062000313565b5080600190805190602001906200010e92919062000313565b5050506200013162000125620001cb60201b60201c565b620001d360201b60201c565b8573ffffffffffffffffffffffffffffffffffffffff1660a08173ffffffffffffffffffffffffffffffffffffffff1660601b815250508467ffffffffffffffff1660c08167ffffffffffffffff1660c01b815250508360e081815250508263ffffffff166101008163ffffffff1660e01b81525050620001b8826200029960201b60201c565b80600b81905550505050505050620009a0565b600033905090565b6000600760009054906101000a900473ffffffffffffffffffffffffffffffffffffffff16905081600760006101000a81548173ffffffffffffffffffffffffffffffffffffffff021916908373ffffffffffffffffffffffffffffffffffffffff1602179055508173ffffffffffffffffffffffffffffffffffffffff168173ffffffffffffffffffffffffffffffffffffffff167f8be0079c531659141344cd1fd0a4f28419497f9722a3daafe3b4186f6b6457e060405160405180910390a35050565b600c60009054906101000a900460ff1615620002e1576040517fddf8bf7000000000000000000000000000000000000000000000000000000000815260040160405180910390fd5b80600a906003620002f4929190620003a4565b506001600c60006101000a81548160ff02191690831515021790555050565b82805462000321906200096a565b90600052602060002090601f01602090048101928262000345576000855562000391565b82601f106200036057805160ff191683800117855562000391565b8280016001018555821562000391579182015b828111156200039057825182559160200191906001019062000373565b5b509050620003a091906200040b565b5090565b828054828255906000526020600020908101928215620003f8579160200282015b82811115620003f7578251829080519060200190620003e692919062000313565b5091602001919060010190620003c5565b5b5090506200040791906200042a565b5090565b5b80821115620004265760008160009055506001016200040c565b5090565b5b808211156200044e576000818162000444919062000452565b506001016200042b565b5090565b50805462000460906200096a565b6000825580601f1062000474575062000495565b601f0160209004906000526020600020908101906200049491906200040b565b5b50565b6000604051905090565b600080fd5b600080fd5b600073ffffffffffffffffffffffffffffffffffffffff82169050919050565b6000620004d982620004ac565b9050919050565b620004eb81620004cc565b8114620004f757600080fd5b50565b6000815190506200050b81620004e0565b92915050565b600067ffffffffffffffff82169050919050565b620005308162000511565b81146200053c57600080fd5b50565b600081519050620005508162000525565b92915050565b6000819050919050565b6200056b8162000556565b81146200057757600080fd5b50565b6000815190506200058b8162000560565b92915050565b600063ffffffff82169050919050565b620005ac8162000591565b8114620005b857600080fd5b50565b600081519050620005cc81620005a1565b92915050565b600080fd5b6000601f19601f8301169050919050565b7f4e487b7100000000000000000000000000000000000000000000000000000000600052604160045260246000fd5b6200062282620005d7565b810181811067ffffffffffffffff82111715620006445762000643620005e8565b5b80604052505050565b60006200065962000498565b905062000667828262000617565b919050565b600067ffffffffffffffff8211156200068a5762000689620005e8565b5b602082029050919050565b600080fd5b600080fd5b600067ffffffffffffffff821115620006bd57620006bc620005e8565b5b620006c882620005d7565b9050602081019050919050565b60005b83811015620006f5578082015181840152602081019050620006d8565b8381111562000705576000848401525b50505050565b6000620007226200071c846200069f565b6200064d565b9050828152602081018484840111156200074157620007406200069a565b5b6200074e848285620006d5565b509392505050565b600082601f8301126200076e576200076d620005d2565b5b8151620007808482602086016200070b565b91505092915050565b6000620007a06200079a846200066c565b6200064d565b90508060208402830185811115620007bd57620007bc62000695565b5b835b818110156200080b57805167ffffffffffffffff811115620007e657620007e5620005d2565b5b808601620007f5898262000756565b85526020850194505050602081019050620007bf565b5050509392505050565b600082601f8301126200082d576200082c620005d2565b5b60036200083c84828562000789565b91505092915050565b6000819050919050565b6200085a8162000845565b81146200086657600080fd5b50565b6000815190506200087a816200084f565b92915050565b60008060008060008060c08789031215620008a0576200089f620004a2565b5b6000620008b089828a01620004fa565b9650506020620008c389828a016200053f565b9550506040620008d689828a016200057a565b9450506060620008e989828a01620005bb565b935050608087015167ffffffffffffffff8111156200090d576200090c620004a7565b5b6200091b89828a0162000815565b92505060a06200092e89828a0162000869565b9150509295509295509295565b7f4e487b7100000000000000000000000000000000000000000000000000000000600052602260045260246000fd5b600060028204905060018216806200098357607f821691505b602082108114156200099a57620009996200093b565b5b50919050565b60805160601c60a05160601c60c05160c01c60e0516101005160e01c613c05620009f8600039600061102801526000610fe40152600061100501526000610fa801526000818161096301526109b70152613c056000f3fe60806040526004361061019c5760003560e01c8063715018a6116100ec578063a51cccf31161008a578063c87b56dd11610064578063c87b56dd146105bb578063e985e9c5146105f8578063ee89dab414610635578063f2fde38b146106605761019c565b8063a51cccf314610537578063aa15249114610574578063b88d4fde146105925761019c565b80638da5cb5b116100c65780638da5cb5b1461047b57806395d89b41146104a6578063a22cb465146104d1578063a36f573b146104fa5761019c565b8063715018a6146103fc578063741a63fa146104135780637a5caab3146104505761019c565b806323b872dd116101595780635dacf5f4116101335780635dacf5f41461032c5780636352211e146103575780636e02007d1461039457806370a08231146103bf5761019c565b806323b872dd146102c35780633aedfb8b146102ec57806342842e0e146103035761019c565b806301ffc9a7146101a157806306fdde03146101de578063081812fc14610209578063095ea7b3146102465780630b21a83b1461026f5780631fe543e31461029a575b600080fd5b3480156101ad57600080fd5b506101c860048036038101906101c391906127e4565b610689565b6040516101d5919061282c565b60405180910390f35b3480156101ea57600080fd5b506101f361076b565b60405161020091906128e0565b60405180910390f35b34801561021557600080fd5b50610230600480360381019061022b9190612938565b6107fd565b60405161023d91906129a6565b60405180910390f35b34801561025257600080fd5b5061026d600480360381019061026891906129ed565b610843565b005b34801561027b57600080fd5b5061028461095b565b6040516102919190612a3c565b60405180910390f35b3480156102a657600080fd5b506102c160048036038101906102bc9190612b9f565b610961565b005b3480156102cf57600080fd5b506102ea60048036038101906102e59190612bfb565b610a21565b005b3480156102f857600080fd5b50610301610a81565b005b34801561030f57600080fd5b5061032a60048036038101906103259190612bfb565b610b35565b005b34801561033857600080fd5b50610341610b55565b60405161034e9190612cf9565b60405180910390f35b34801561036357600080fd5b5061037e60048036038101906103799190612938565b610b80565b60405161038b91906129a6565b60405180910390f35b3480156103a057600080fd5b506103a9610c07565b6040516103b69190612a3c565b60405180910390f35b3480156103cb57600080fd5b506103e660048036038101906103e19190612d14565b610c11565b6040516103f39190612a3c565b60405180910390f35b34801561040857600080fd5b50610411610cc9565b005b34801561041f57600080fd5b5061043a60048036038101906104359190612938565b610cdd565b60405161044791906128e0565b60405180910390f35b34801561045c57600080fd5b50610465610d8d565b6040516104729190612a3c565b60405180910390f35b34801561048757600080fd5b50610490610d97565b60405161049d91906129a6565b60405180910390f35b3480156104b257600080fd5b506104bb610dc1565b6040516104c891906128e0565b60405180910390f35b3480156104dd57600080fd5b506104f860048036038101906104f39190612d6d565b610e53565b005b34801561050657600080fd5b50610521600480360381019061051c9190612938565b610e69565b60405161052e91906129a6565b60405180910390f35b34801561054357600080fd5b5061055e60048036038101906105599190612938565b610e9c565b60405161056b9190612e24565b60405180910390f35b61057c610f68565b6040516105899190612a3c565b60405180910390f35b34801561059e57600080fd5b506105b960048036038101906105b49190612ef4565b61114a565b005b3480156105c757600080fd5b506105e260048036038101906105dd9190612938565b6111ac565b6040516105ef91906128e0565b60405180910390f35b34801561060457600080fd5b5061061f600480360381019061061a9190612f77565b6112bf565b60405161062c919061282c565b60405180910390f35b34801561064157600080fd5b5061064a611353565b604051610657919061282c565b60405180910390f35b34801561066c57600080fd5b5061068760048036038101906106829190612d14565b61136a565b005b60007f80ac58cd000000000000000000000000000000000000000000000000000000007bffffffffffffffffffffffffffffffffffffffffffffffffffffffff1916827bffffffffffffffffffffffffffffffffffffffffffffffffffffffff1916148061075457507f5b5e139f000000000000000000000000000000000000000000000000000000007bffffffffffffffffffffffffffffffffffffffffffffffffffffffff1916827bffffffffffffffffffffffffffffffffffffffffffffffffffffffff1916145b806107645750610763826113ee565b5b9050919050565b60606000805461077a90612fe6565b80601f01602080910402602001604051908101604052809291908181526020018280546107a690612fe6565b80156107f35780601f106107c8576101008083540402835291602001916107f3565b820191906000526020600020905b8154815290600101906020018083116107d657829003601f168201915b5050505050905090565b600061080882611458565b6004600083815260200190815260200160002060009054906101000a900473ffffffffffffffffffffffffffffffffffffffff169050919050565b600061084e82610b80565b90508073ffffffffffffffffffffffffffffffffffffffff168373ffffffffffffffffffffffffffffffffffffffff1614156108bf576040517f08c379a00000000000000000000000000000000000000000000000000000000081526004016108b69061308a565b60405180910390fd5b8073ffffffffffffffffffffffffffffffffffffffff166108de6114a3565b73ffffffffffffffffffffffffffffffffffffffff16148061090d575061090c816109076114a3565b6112bf565b5b61094c576040517f08c379a00000000000000000000000000000000000000000000000000000000081526004016109439061311c565b60405180910390fd5b61095683836114ab565b505050565b60095481565b7f000000000000000000000000000000000000000000000000000000000000000073ffffffffffffffffffffffffffffffffffffffff163373ffffffffffffffffffffffffffffffffffffffff1614610a1357337f00000000000000000000000000000000000000000000000000000000000000006040517f1cf993f4000000000000000000000000000000000000000000000000000000008152600401610a0a92919061313c565b60405180910390fd5b610a1d8282611564565b5050565b610a32610a2c6114a3565b826116fe565b610a71576040517f08c379a0000000000000000000000000000000000000000000000000000000008152600401610a68906131d7565b60405180910390fd5b610a7c838383611793565b505050565b610a89611a8d565b600047905060003373ffffffffffffffffffffffffffffffffffffffff1682604051610ab490613228565b60006040518083038185875af1925050503d8060008114610af1576040519150601f19603f3d011682016040523d82523d6000602084013e610af6565b606091505b5050905080610b31576040517fca7e25b700000000000000000000000000000000000000000000000000000000815260040160405180910390fd5b5050565b610b508383836040518060200160405280600081525061114a565b505050565b610b5d6126b3565b6040518060600160405280600a8152602001601e81526020016064815250905090565b600080610b8c83611b0b565b9050600073ffffffffffffffffffffffffffffffffffffffff168173ffffffffffffffffffffffffffffffffffffffff161415610bfe576040517f08c379a0000000000000000000000000000000000000000000000000000000008152600401610bf590613289565b60405180910390fd5b80915050919050565b6000600954905090565b60008073ffffffffffffffffffffffffffffffffffffffff168273ffffffffffffffffffffffffffffffffffffffff161415610c82576040517f08c379a0000000000000000000000000000000000000000000000000000000008152600401610c799061331b565b60405180910390fd5b600360008373ffffffffffffffffffffffffffffffffffffffff1673ffffffffffffffffffffffffffffffffffffffff168152602001908152602001600020549050919050565b610cd1611a8d565b610cdb6000611b48565b565b6060600a8281548110610cf357610cf261333b565b5b906000526020600020018054610d0890612fe6565b80601f0160208091040260200160405190810160405280929190818152602001828054610d3490612fe6565b8015610d815780601f10610d5657610100808354040283529160200191610d81565b820191906000526020600020905b815481529060010190602001808311610d6457829003601f168201915b50505050509050919050565b6000600b54905090565b6000600760009054906101000a900473ffffffffffffffffffffffffffffffffffffffff16905090565b606060018054610dd090612fe6565b80601f0160208091040260200160405190810160405280929190818152602001828054610dfc90612fe6565b8015610e495780601f10610e1e57610100808354040283529160200191610e49565b820191906000526020600020905b815481529060010190602001808311610e2c57829003601f168201915b5050505050905090565b610e65610e5e6114a3565b8383611c0e565b5050565b60086020528060005260406000206000915054906101000a900473ffffffffffffffffffffffffffffffffffffffff1681565b600080600090506000610ead610b55565b905060005b6003811015610f3057828510158015610ee15750818160038110610ed957610ed861333b565b5b602002015185105b15610f0357806002811115610ef957610ef8612dad565b5b9350505050610f63565b818160038110610f1657610f1561333b565b5b602002015192508080610f2890613399565b915050610eb2565b506040517f12806c9d00000000000000000000000000000000000000000000000000000000815260040160405180910390fd5b919050565b6000600b54341015610fa6576040517fb90f491000000000000000000000000000000000000000000000000000000000815260040160405180910390fd5b7f000000000000000000000000000000000000000000000000000000000000000073ffffffffffffffffffffffffffffffffffffffff16635d3b1d307f00000000000000000000000000000000000000000000000000000000000000007f000000000000000000000000000000000000000000000000000000000000000060037f000000000000000000000000000000000000000000000000000000000000000060016040518663ffffffff1660e01b815260040161106995949392919061345a565b602060405180830381600087803b15801561108357600080fd5b505af1158015611097573d6000803e3d6000fd5b505050506040513d601f19601f820116820180604052508101906110bb91906134c2565b9050336008600083815260200190815260200160002060006101000a81548173ffffffffffffffffffffffffffffffffffffffff021916908373ffffffffffffffffffffffffffffffffffffffff160217905550807ff873236e6cc0ecc5be1a9a35c95ee5b8d1ac4cc7bfef0cc5060391d6cc98e26b3360405161113f91906129a6565b60405180910390a290565b61115b6111556114a3565b836116fe565b61119a576040517f08c379a0000000000000000000000000000000000000000000000000000000008152600401611191906131d7565b60405180910390fd5b6111a684848484611d7b565b50505050565b60606111b782611458565b60006006600084815260200190815260200160002080546111d790612fe6565b80601f016020809104026020016040519081016040528092919081815260200182805461120390612fe6565b80156112505780601f1061122557610100808354040283529160200191611250565b820191906000526020600020905b81548152906001019060200180831161123357829003601f168201915b505050505090506000611261611dd7565b90506000815114156112775781925050506112ba565b6000825111156112ac57808260405160200161129492919061352b565b604051602081830303815290604052925050506112ba565b6112b584611dee565b925050505b919050565b6000600560008473ffffffffffffffffffffffffffffffffffffffff1673ffffffffffffffffffffffffffffffffffffffff16815260200190815260200160002060008373ffffffffffffffffffffffffffffffffffffffff1673ffffffffffffffffffffffffffffffffffffffff16815260200190815260200160002060009054906101000a900460ff16905092915050565b6000600c60009054906101000a900460ff16905090565b611372611a8d565b600073ffffffffffffffffffffffffffffffffffffffff168173ffffffffffffffffffffffffffffffffffffffff1614156113e2576040517f08c379a00000000000000000000000000000000000000000000000000000000081526004016113d9906135c1565b60405180910390fd5b6113eb81611b48565b50565b60007f01ffc9a7000000000000000000000000000000000000000000000000000000007bffffffffffffffffffffffffffffffffffffffffffffffffffffffff1916827bffffffffffffffffffffffffffffffffffffffffffffffffffffffff1916149050919050565b61146181611e56565b6114a0576040517f08c379a000000000000000000000000000000000000000000000000000000000815260040161149790613289565b60405180910390fd5b50565b600033905090565b816004600083815260200190815260200160002060006101000a81548173ffffffffffffffffffffffffffffffffffffffff021916908373ffffffffffffffffffffffffffffffffffffffff160217905550808273ffffffffffffffffffffffffffffffffffffffff1661151e83610b80565b73ffffffffffffffffffffffffffffffffffffffff167f8c5be1e5ebec7d5bd14f71427d1e84f3dd0314c0f7b2291e5b200ac8c7c3b92560405160405180910390a45050565b60006008600084815260200190815260200160002060009054906101000a900473ffffffffffffffffffffffffffffffffffffffff1690506000600954905060016009546115b291906135e1565b60098190555060006064846000815181106115d0576115cf61333b565b5b60200260200101516115e29190613666565b905060006115ef82610e9c565b90506115fb8484611e97565b6116bd83600a83600281111561161457611613612dad565b5b815481106116255761162461333b565b5b90600052602060002001805461163a90612fe6565b80601f016020809104026020016040519081016040528092919081815260200182805461166690612fe6565b80156116b35780601f10611688576101008083540402835291602001916116b3565b820191906000526020600020905b81548152906001019060200180831161169657829003601f168201915b5050505050611eb5565b7f8a269f26b688e110e9cbd887d163dab35cae678fa353a0292de532c0cac1ecdc81856040516116ee929190613697565b60405180910390a1505050505050565b60008061170a83610b80565b90508073ffffffffffffffffffffffffffffffffffffffff168473ffffffffffffffffffffffffffffffffffffffff16148061174c575061174b81856112bf565b5b8061178a57508373ffffffffffffffffffffffffffffffffffffffff16611772846107fd565b73ffffffffffffffffffffffffffffffffffffffff16145b91505092915050565b8273ffffffffffffffffffffffffffffffffffffffff166117b382610b80565b73ffffffffffffffffffffffffffffffffffffffff1614611809576040517f08c379a000000000000000000000000000000000000000000000000000000000815260040161180090613732565b60405180910390fd5b600073ffffffffffffffffffffffffffffffffffffffff168273ffffffffffffffffffffffffffffffffffffffff161415611879576040517f08c379a0000000000000000000000000000000000000000000000000000000008152600401611870906137c4565b60405180910390fd5b6118868383836001611f29565b8273ffffffffffffffffffffffffffffffffffffffff166118a682610b80565b73ffffffffffffffffffffffffffffffffffffffff16146118fc576040517f08c379a00000000000000000000000000000000000000000000000000000000081526004016118f390613732565b60405180910390fd5b6004600082815260200190815260200160002060006101000a81549073ffffffffffffffffffffffffffffffffffffffff02191690556001600360008573ffffffffffffffffffffffffffffffffffffffff1673ffffffffffffffffffffffffffffffffffffffff168152602001908152602001600020600082825403925050819055506001600360008473ffffffffffffffffffffffffffffffffffffffff1673ffffffffffffffffffffffffffffffffffffffff16815260200190815260200160002060008282540192505081905550816002600083815260200190815260200160002060006101000a81548173ffffffffffffffffffffffffffffffffffffffff021916908373ffffffffffffffffffffffffffffffffffffffff160217905550808273ffffffffffffffffffffffffffffffffffffffff168473ffffffffffffffffffffffffffffffffffffffff167fddf252ad1be2c89b69c2b068fc378daa952ba7f163c4a11628f55a4df523b3ef60405160405180910390a4611a88838383600161204f565b505050565b611a956114a3565b73ffffffffffffffffffffffffffffffffffffffff16611ab3610d97565b73ffffffffffffffffffffffffffffffffffffffff1614611b09576040517f08c379a0000000000000000000000000000000000000000000000000000000008152600401611b0090613830565b60405180910390fd5b565b60006002600083815260200190815260200160002060009054906101000a900473ffffffffffffffffffffffffffffffffffffffff169050919050565b6000600760009054906101000a900473ffffffffffffffffffffffffffffffffffffffff16905081600760006101000a81548173ffffffffffffffffffffffffffffffffffffffff021916908373ffffffffffffffffffffffffffffffffffffffff1602179055508173ffffffffffffffffffffffffffffffffffffffff168173ffffffffffffffffffffffffffffffffffffffff167f8be0079c531659141344cd1fd0a4f28419497f9722a3daafe3b4186f6b6457e060405160405180910390a35050565b8173ffffffffffffffffffffffffffffffffffffffff168373ffffffffffffffffffffffffffffffffffffffff161415611c7d576040517f08c379a0000000000000000000000000000000000000000000000000000000008152600401611c749061389c565b60405180910390fd5b80600560008573ffffffffffffffffffffffffffffffffffffffff1673ffffffffffffffffffffffffffffffffffffffff16815260200190815260200160002060008473ffffffffffffffffffffffffffffffffffffffff1673ffffffffffffffffffffffffffffffffffffffff16815260200190815260200160002060006101000a81548160ff0219169083151502179055508173ffffffffffffffffffffffffffffffffffffffff168373ffffffffffffffffffffffffffffffffffffffff167f17307eab39ab6107e8899845ad3d59bd9653f200f220920489ca2b5937696c3183604051611d6e919061282c565b60405180910390a3505050565b611d86848484611793565b611d9284848484612055565b611dd1576040517f08c379a0000000000000000000000000000000000000000000000000000000008152600401611dc89061392e565b60405180910390fd5b50505050565b606060405180602001604052806000815250905090565b6060611df982611458565b6000611e03611dd7565b90506000815111611e235760405180602001604052806000815250611e4e565b80611e2d846121ec565b604051602001611e3e92919061352b565b6040516020818303038152906040525b915050919050565b60008073ffffffffffffffffffffffffffffffffffffffff16611e7883611b0b565b73ffffffffffffffffffffffffffffffffffffffff1614159050919050565b611eb18282604051806020016040528060008152506122c4565b5050565b611ebe82611e56565b611efd576040517f08c379a0000000000000000000000000000000000000000000000000000000008152600401611ef4906139c0565b60405180910390fd5b80600660008481526020019081526020016000209080519060200190611f249291906126d5565b505050565b600181111561204957600073ffffffffffffffffffffffffffffffffffffffff168473ffffffffffffffffffffffffffffffffffffffff1614611fbd5780600360008673ffffffffffffffffffffffffffffffffffffffff1673ffffffffffffffffffffffffffffffffffffffff1681526020019081526020016000206000828254611fb591906139e0565b925050819055505b600073ffffffffffffffffffffffffffffffffffffffff168373ffffffffffffffffffffffffffffffffffffffff16146120485780600360008573ffffffffffffffffffffffffffffffffffffffff1673ffffffffffffffffffffffffffffffffffffffff168152602001908152602001600020600082825461204091906135e1565b925050819055505b5b50505050565b50505050565b60006120768473ffffffffffffffffffffffffffffffffffffffff1661231f565b156121df578373ffffffffffffffffffffffffffffffffffffffff1663150b7a0261209f6114a3565b8786866040518563ffffffff1660e01b81526004016120c19493929190613a69565b602060405180830381600087803b1580156120db57600080fd5b505af192505050801561210c57506040513d601f19601f820116820180604052508101906121099190613aca565b60015b61218f573d806000811461213c576040519150601f19603f3d011682016040523d82523d6000602084013e612141565b606091505b50600081511415612187576040517f08c379a000000000000000000000000000000000000000000000000000000000815260040161217e9061392e565b60405180910390fd5b805181602001fd5b63150b7a0260e01b7bffffffffffffffffffffffffffffffffffffffffffffffffffffffff1916817bffffffffffffffffffffffffffffffffffffffffffffffffffffffff1916149150506121e4565b600190505b949350505050565b6060600060016121fb84612342565b01905060008167ffffffffffffffff81111561221a57612219612a5c565b5b6040519080825280601f01601f19166020018201604052801561224c5781602001600182028036833780820191505090505b509050600082602001820190505b6001156122b9578080600190039150507f3031323334353637383961626364656600000000000000000000000000000000600a86061a8153600a85816122a3576122a2613637565b5b04945060008514156122b4576122b9565b61225a565b819350505050919050565b6122ce8383612495565b6122db6000848484612055565b61231a576040517f08c379a00000000000000000000000000000000000000000000000000000000081526004016123119061392e565b60405180910390fd5b505050565b6000808273ffffffffffffffffffffffffffffffffffffffff163b119050919050565b600080600090507a184f03e93ff9f4daa797ed6e38ed64bf6a1f01000000000000000083106123a0577a184f03e93ff9f4daa797ed6e38ed64bf6a1f010000000000000000838161239657612395613637565b5b0492506040810190505b6d04ee2d6d415b85acef810000000083106123dd576d04ee2d6d415b85acef810000000083816123d3576123d2613637565b5b0492506020810190505b662386f26fc10000831061240c57662386f26fc10000838161240257612401613637565b5b0492506010810190505b6305f5e1008310612435576305f5e100838161242b5761242a613637565b5b0492506008810190505b612710831061245a5761271083816124505761244f613637565b5b0492506004810190505b6064831061247d576064838161247357612472613637565b5b0492506002810190505b600a831061248c576001810190505b80915050919050565b600073ffffffffffffffffffffffffffffffffffffffff168273ffffffffffffffffffffffffffffffffffffffff161415612505576040517f08c379a00000000000000000000000000000000000000000000000000000000081526004016124fc90613b43565b60405180910390fd5b61250e81611e56565b1561254e576040517f08c379a000000000000000000000000000000000000000000000000000000000815260040161254590613baf565b60405180910390fd5b61255c600083836001611f29565b61256581611e56565b156125a5576040517f08c379a000000000000000000000000000000000000000000000000000000000815260040161259c90613baf565b60405180910390fd5b6001600360008473ffffffffffffffffffffffffffffffffffffffff1673ffffffffffffffffffffffffffffffffffffffff16815260200190815260200160002060008282540192505081905550816002600083815260200190815260200160002060006101000a81548173ffffffffffffffffffffffffffffffffffffffff021916908373ffffffffffffffffffffffffffffffffffffffff160217905550808273ffffffffffffffffffffffffffffffffffffffff16600073ffffffffffffffffffffffffffffffffffffffff167fddf252ad1be2c89b69c2b068fc378daa952ba7f163c4a11628f55a4df523b3ef60405160405180910390a46126af60008383600161204f565b5050565b6040518060600160405280600390602082028036833780820191505090505090565b8280546126e190612fe6565b90600052602060002090601f016020900481019282612703576000855561274a565b82601f1061271c57805160ff191683800117855561274a565b8280016001018555821561274a579182015b8281111561274957825182559160200191906001019061272e565b5b509050612757919061275b565b5090565b5b8082111561277457600081600090555060010161275c565b5090565b6000604051905090565b600080fd5b600080fd5b60007fffffffff0000000000000000000000000000000000000000000000000000000082169050919050565b6127c18161278c565b81146127cc57600080fd5b50565b6000813590506127de816127b8565b92915050565b6000602082840312156127fa576127f9612782565b5b6000612808848285016127cf565b91505092915050565b60008115159050919050565b61282681612811565b82525050565b6000602082019050612841600083018461281d565b92915050565b600081519050919050565b600082825260208201905092915050565b60005b83811015612881578082015181840152602081019050612866565b83811115612890576000848401525b50505050565b6000601f19601f8301169050919050565b60006128b282612847565b6128bc8185612852565b93506128cc818560208601612863565b6128d581612896565b840191505092915050565b600060208201905081810360008301526128fa81846128a7565b905092915050565b6000819050919050565b61291581612902565b811461292057600080fd5b50565b6000813590506129328161290c565b92915050565b60006020828403121561294e5761294d612782565b5b600061295c84828501612923565b91505092915050565b600073ffffffffffffffffffffffffffffffffffffffff82169050919050565b600061299082612965565b9050919050565b6129a081612985565b82525050565b60006020820190506129bb6000830184612997565b92915050565b6129ca81612985565b81146129d557600080fd5b50565b6000813590506129e7816129c1565b92915050565b60008060408385031215612a0457612a03612782565b5b6000612a12858286016129d8565b9250506020612a2385828601612923565b9150509250929050565b612a3681612902565b82525050565b6000602082019050612a516000830184612a2d565b92915050565b600080fd5b7f4e487b7100000000000000000000000000000000000000000000000000000000600052604160045260246000fd5b612a9482612896565b810181811067ffffffffffffffff82111715612ab357612ab2612a5c565b5b80604052505050565b6000612ac6612778565b9050612ad28282612a8b565b919050565b600067ffffffffffffffff821115612af257612af1612a5c565b5b602082029050602081019050919050565b600080fd5b6000612b1b612b1684612ad7565b612abc565b90508083825260208201905060208402830185811115612b3e57612b3d612b03565b5b835b81811015612b675780612b538882612923565b845260208401935050602081019050612b40565b5050509392505050565b600082601f830112612b8657612b85612a57565b5b8135612b96848260208601612b08565b91505092915050565b60008060408385031215612bb657612bb5612782565b5b6000612bc485828601612923565b925050602083013567ffffffffffffffff811115612be557612be4612787565b5b612bf185828601612b71565b9150509250929050565b600080600060608486031215612c1457612c13612782565b5b6000612c22868287016129d8565b9350506020612c33868287016129d8565b9250506040612c4486828701612923565b9150509250925092565b600060039050919050565b600081905092915050565b6000819050919050565b612c7781612902565b82525050565b6000612c898383612c6e565b60208301905092915050565b6000602082019050919050565b612cab81612c4e565b612cb58184612c59565b9250612cc082612c64565b8060005b83811015612cf1578151612cd88782612c7d565b9650612ce383612c95565b925050600181019050612cc4565b505050505050565b6000606082019050612d0e6000830184612ca2565b92915050565b600060208284031215612d2a57612d29612782565b5b6000612d38848285016129d8565b91505092915050565b612d4a81612811565b8114612d5557600080fd5b50565b600081359050612d6781612d41565b92915050565b60008060408385031215612d8457612d83612782565b5b6000612d92858286016129d8565b9250506020612da385828601612d58565b9150509250929050565b7f4e487b7100000000000000000000000000000000000000000000000000000000600052602160045260246000fd5b60038110612ded57612dec612dad565b5b50565b6000819050612dfe82612ddc565b919050565b6000612e0e82612df0565b9050919050565b612e1e81612e03565b82525050565b6000602082019050612e396000830184612e15565b92915050565b600080fd5b600067ffffffffffffffff821115612e5f57612e5e612a5c565b5b612e6882612896565b9050602081019050919050565b82818337600083830152505050565b6000612e97612e9284612e44565b612abc565b905082815260208101848484011115612eb357612eb2612e3f565b5b612ebe848285612e75565b509392505050565b600082601f830112612edb57612eda612a57565b5b8135612eeb848260208601612e84565b91505092915050565b60008060008060808587031215612f0e57612f0d612782565b5b6000612f1c878288016129d8565b9450506020612f2d878288016129d8565b9350506040612f3e87828801612923565b925050606085013567ffffffffffffffff811115612f5f57612f5e612787565b5b612f6b87828801612ec6565b91505092959194509250565b60008060408385031215612f8e57612f8d612782565b5b6000612f9c858286016129d8565b9250506020612fad858286016129d8565b9150509250929050565b7f4e487b7100000000000000000000000000000000000000000000000000000000600052602260045260246000fd5b60006002820490506001821680612ffe57607f821691505b6020821081141561301257613011612fb7565b5b50919050565b7f4552433732313a20617070726f76616c20746f2063757272656e74206f776e6560008201527f7200000000000000000000000000000000000000000000000000000000000000602082015250565b6000613074602183612852565b915061307f82613018565b604082019050919050565b600060208201905081810360008301526130a381613067565b9050919050565b7f4552433732313a20617070726f76652063616c6c6572206973206e6f7420746f60008201527f6b656e206f776e6572206f7220617070726f76656420666f7220616c6c000000602082015250565b6000613106603d83612852565b9150613111826130aa565b604082019050919050565b60006020820190508181036000830152613135816130f9565b9050919050565b60006040820190506131516000830185612997565b61315e6020830184612997565b9392505050565b7f4552433732313a2063616c6c6572206973206e6f7420746f6b656e206f776e6560008201527f72206f7220617070726f76656400000000000000000000000000000000000000602082015250565b60006131c1602d83612852565b91506131cc82613165565b604082019050919050565b600060208201905081810360008301526131f0816131b4565b9050919050565b600081905092915050565b50565b60006132126000836131f7565b915061321d82613202565b600082019050919050565b600061323382613205565b9150819050919050565b7f4552433732313a20696e76616c696420746f6b656e2049440000000000000000600082015250565b6000613273601883612852565b915061327e8261323d565b602082019050919050565b600060208201905081810360008301526132a281613266565b9050919050565b7f4552433732313a2061646472657373207a65726f206973206e6f74206120766160008201527f6c6964206f776e65720000000000000000000000000000000000000000000000602082015250565b6000613305602983612852565b9150613310826132a9565b604082019050919050565b60006020820190508181036000830152613334816132f8565b9050919050565b7f4e487b7100000000000000000000000000000000000000000000000000000000600052603260045260246000fd5b7f4e487b7100000000000000000000000000000000000000000000000000000000600052601160045260246000fd5b60006133a482612902565b91507fffffffffffffffffffffffffffffffffffffffffffffffffffffffffffffffff8214156133d7576133d661336a565b5b600182019050919050565b6000819050919050565b6133f5816133e2565b82525050565b600067ffffffffffffffff82169050919050565b613418816133fb565b82525050565b600061ffff82169050919050565b6134358161341e565b82525050565b600063ffffffff82169050919050565b6134548161343b565b82525050565b600060a08201905061346f60008301886133ec565b61347c602083018761340f565b613489604083018661342c565b613496606083018561344b565b6134a3608083018461344b565b9695505050505050565b6000815190506134bc8161290c565b92915050565b6000602082840312156134d8576134d7612782565b5b60006134e6848285016134ad565b91505092915050565b600081905092915050565b600061350582612847565b61350f81856134ef565b935061351f818560208601612863565b80840191505092915050565b600061353782856134fa565b915061354382846134fa565b91508190509392505050565b7f4f776e61626c653a206e6577206f776e657220697320746865207a65726f206160008201527f6464726573730000000000000000000000000000000000000000000000000000602082015250565b60006135ab602683612852565b91506135b68261354f565b604082019050919050565b600060208201905081810360008301526135da8161359e565b9050919050565b60006135ec82612902565b91506135f783612902565b9250827fffffffffffffffffffffffffffffffffffffffffffffffffffffffffffffffff0382111561362c5761362b61336a565b5b828201905092915050565b7f4e487b7100000000000000000000000000000000000000000000000000000000600052601260045260246000fd5b600061367182612902565b915061367c83612902565b92508261368c5761368b613637565b5b828206905092915050565b60006040820190506136ac6000830185612e15565b6136b96020830184612997565b9392505050565b7f4552433732313a207472616e736665722066726f6d20696e636f72726563742060008201527f6f776e6572000000000000000000000000000000000000000000000000000000602082015250565b600061371c602583612852565b9150613727826136c0565b604082019050919050565b6000602082019050818103600083015261374b8161370f565b9050919050565b7f4552433732313a207472616e7366657220746f20746865207a65726f2061646460008201527f7265737300000000000000000000000000000000000000000000000000000000602082015250565b60006137ae602483612852565b91506137b982613752565b604082019050919050565b600060208201905081810360008301526137dd816137a1565b9050919050565b7f4f776e61626c653a2063616c6c6572206973206e6f7420746865206f776e6572600082015250565b600061381a602083612852565b9150613825826137e4565b602082019050919050565b600060208201905081810360008301526138498161380d565b9050919050565b7f4552433732313a20617070726f766520746f2063616c6c657200000000000000600082015250565b6000613886601983612852565b915061389182613850565b602082019050919050565b600060208201905081810360008301526138b581613879565b9050919050565b7f4552433732313a207472616e7366657220746f206e6f6e20455243373231526560008201527f63656976657220696d706c656d656e7465720000000000000000000000000000602082015250565b6000613918603283612852565b9150613923826138bc565b604082019050919050565b600060208201905081810360008301526139478161390b565b9050919050565b7f45524337323155524953746f726167653a2055524920736574206f66206e6f6e60008201527f6578697374656e7420746f6b656e000000000000000000000000000000000000602082015250565b60006139aa602e83612852565b91506139b58261394e565b604082019050919050565b600060208201905081810360008301526139d98161399d565b9050919050565b60006139eb82612902565b91506139f683612902565b925082821015613a0957613a0861336a565b5b828203905092915050565b600081519050919050565b600082825260208201905092915050565b6000613a3b82613a14565b613a458185613a1f565b9350613a55818560208601612863565b613a5e81612896565b840191505092915050565b6000608082019050613a7e6000830187612997565b613a8b6020830186612997565b613a986040830185612a2d565b8181036060830152613aaa8184613a30565b905095945050505050565b600081519050613ac4816127b8565b92915050565b600060208284031215613ae057613adf612782565b5b6000613aee84828501613ab5565b91505092915050565b7f4552433732313a206d696e7420746f20746865207a65726f2061646472657373600082015250565b6000613b2d602083612852565b9150613b3882613af7565b602082019050919050565b60006020820190508181036000830152613b5c81613b20565b9050919050565b7f4552433732313a20746f6b656e20616c7265616479206d696e74656400000000600082015250565b6000613b99601c83612852565b9150613ba482613b63565b602082019050919050565b60006020820190508181036000830152613bc881613b8c565b905091905056fea264697066735822122046f6617aabb82c2759673d4bf96bc97cdc60223112d7f871f12fd31baf3210c064736f6c63430008080033",
  "devdoc": {
    "kind": "dev",
    "methods": {
      "approve(address,uint256)": {
        "details": "See {IERC721-approve}."
      },
      "balanceOf(address)": {
        "details": "See {IERC721-balanceOf}."
      },
      "getApproved(uint256)": {
        "details": "See {IERC721-getApproved}."
      },
      "isApprovedForAll(address,address)": {
        "details": "See {IERC721-isApprovedForAll}."
      },
      "name()": {
        "details": "See {IERC721Metadata-name}."
      },
      "owner()": {
        "details": "Returns the address of the current owner."
      },
      "ownerOf(uint256)": {
        "details": "See {IERC721-ownerOf}."
      },
      "renounceOwnership()": {
        "details": "Leaves the contract without owner. It will not be possible to call `onlyOwner` functions anymore. Can only be called by the current owner. NOTE: Renouncing ownership will leave the contract without an owner, thereby removing any functionality that is only available to the owner."
      },
      "safeTransferFrom(address,address,uint256)": {
        "details": "See {IERC721-safeTransferFrom}."
      },
      "safeTransferFrom(address,address,uint256,bytes)": {
        "details": "See {IERC721-safeTransferFrom}."
      },
      "setApprovalForAll(address,bool)": {
        "details": "See {IERC721-setApprovalForAll}."
      },
      "supportsInterface(bytes4)": {
        "details": "See {IERC165-supportsInterface}."
      },
      "symbol()": {
        "details": "See {IERC721Metadata-symbol}."
      },
      "tokenURI(uint256)": {
        "details": "See {IERC721Metadata-tokenURI}."
      },
      "transferFrom(address,address,uint256)": {
        "details": "See {IERC721-transferFrom}."
      },
      "transferOwnership(address)": {
        "details": "Transfers ownership of the contract to a new account (`newOwner`). Can only be called by the current owner."
      }
    },
    "version": 1
  },
  "userdoc": {
    "kind": "user",
    "methods": {},
    "version": 1
  },
  "storageLayout": {
    "storage": [
      {
        "astId": 1559,
        "contract": "contracts/RandomIpfsNft.sol:RandomIpfsNft",
        "label": "_name",
        "offset": 0,
        "slot": "0",
        "type": "t_string_storage"
      },
      {
        "astId": 1561,
        "contract": "contracts/RandomIpfsNft.sol:RandomIpfsNft",
        "label": "_symbol",
        "offset": 0,
        "slot": "1",
        "type": "t_string_storage"
      },
      {
        "astId": 1565,
        "contract": "contracts/RandomIpfsNft.sol:RandomIpfsNft",
        "label": "_owners",
        "offset": 0,
        "slot": "2",
        "type": "t_mapping(t_uint256,t_address)"
      },
      {
        "astId": 1569,
        "contract": "contracts/RandomIpfsNft.sol:RandomIpfsNft",
        "label": "_balances",
        "offset": 0,
        "slot": "3",
        "type": "t_mapping(t_address,t_uint256)"
      },
      {
        "astId": 1573,
        "contract": "contracts/RandomIpfsNft.sol:RandomIpfsNft",
        "label": "_tokenApprovals",
        "offset": 0,
        "slot": "4",
        "type": "t_mapping(t_uint256,t_address)"
      },
      {
        "astId": 1579,
        "contract": "contracts/RandomIpfsNft.sol:RandomIpfsNft",
        "label": "_operatorApprovals",
        "offset": 0,
        "slot": "5",
        "type": "t_mapping(t_address,t_mapping(t_address,t_bool))"
      },
      {
        "astId": 2625,
        "contract": "contracts/RandomIpfsNft.sol:RandomIpfsNft",
        "label": "_tokenURIs",
        "offset": 0,
        "slot": "6",
        "type": "t_mapping(t_uint256,t_string_storage)"
      },
      {
        "astId": 1428,
        "contract": "contracts/RandomIpfsNft.sol:RandomIpfsNft",
        "label": "_owner",
        "offset": 0,
        "slot": "7",
        "type": "t_address"
      },
      {
        "astId": 4613,
        "contract": "contracts/RandomIpfsNft.sol:RandomIpfsNft",
        "label": "s_requestIdToSender",
        "offset": 0,
        "slot": "8",
        "type": "t_mapping(t_uint256,t_address)"
      },
      {
        "astId": 4615,
        "contract": "contracts/RandomIpfsNft.sol:RandomIpfsNft",
        "label": "s_tokenCounter",
        "offset": 0,
        "slot": "9",
        "type": "t_uint256"
      },
      {
        "astId": 4621,
        "contract": "contracts/RandomIpfsNft.sol:RandomIpfsNft",
        "label": "s_dogTokenUris",
        "offset": 0,
        "slot": "10",
        "type": "t_array(t_string_storage)dyn_storage"
      },
      {
        "astId": 4623,
        "contract": "contracts/RandomIpfsNft.sol:RandomIpfsNft",
        "label": "i_mintFee",
        "offset": 0,
        "slot": "11",
        "type": "t_uint256"
      },
      {
        "astId": 4625,
        "contract": "contracts/RandomIpfsNft.sol:RandomIpfsNft",
        "label": "s_initialized",
        "offset": 0,
        "slot": "12",
        "type": "t_bool"
      }
    ],
    "types": {
      "t_address": {
        "encoding": "inplace",
        "label": "address",
        "numberOfBytes": "20"
      },
      "t_array(t_string_storage)dyn_storage": {
        "base": "t_string_storage",
        "encoding": "dynamic_array",
        "label": "string[]",
        "numberOfBytes": "32"
      },
      "t_bool": {
        "encoding": "inplace",
        "label": "bool",
        "numberOfBytes": "1"
      },
      "t_mapping(t_address,t_bool)": {
        "encoding": "mapping",
        "key": "t_address",
        "label": "mapping(address => bool)",
        "numberOfBytes": "32",
        "value": "t_bool"
      },
      "t_mapping(t_address,t_mapping(t_address,t_bool))": {
        "encoding": "mapping",
        "key": "t_address",
        "label": "mapping(address => mapping(address => bool))",
        "numberOfBytes": "32",
        "value": "t_mapping(t_address,t_bool)"
      },
      "t_mapping(t_address,t_uint256)": {
        "encoding": "mapping",
        "key": "t_address",
        "label": "mapping(address => uint256)",
        "numberOfBytes": "32",
        "value": "t_uint256"
      },
      "t_mapping(t_uint256,t_address)": {
        "encoding": "mapping",
        "key": "t_uint256",
        "label": "mapping(uint256 => address)",
        "numberOfBytes": "32",
        "value": "t_address"
      },
      "t_mapping(t_uint256,t_string_storage)": {
        "encoding": "mapping",
        "key": "t_uint256",
        "label": "mapping(uint256 => string)",
        "numberOfBytes": "32",
        "value": "t_string_storage"
      },
      "t_string_storage": {
        "encoding": "bytes",
        "label": "string",
        "numberOfBytes": "32"
      },
      "t_uint256": {
        "encoding": "inplace",
        "label": "uint256",
        "numberOfBytes": "32"
      }
    }
  }
}